:100000000C943E000C9453000C9453000C94530039
:100010000C9453000C9453000C9453000C94530014
:100020000C9453000C9453000C9453000C94530004
:100030000C9453000C9453000C9453000C945300F4
:100040000C9453000C9453000C9453000C945300E4
:100050000C9453000C9453000C9453000C945300D4
:100060000C9453000C9453000C9453000C945300C4
:100070000C9453000C9453000C94530011241FBE95
:10008000CFEFD8E0DEBFCDBF11E0A0E0B1E0E4EB00
:10009000F1E002C005900D92A230B107D9F70E949D
:1000A0007D000C94D8000C9400001092C50080E1F3
:1000B0008093C400E0ECF0E080818260808386E081
:1000C0008093C20088E18093C1000895E0ECF0E0E5
:1000D000908195FFFDCF8093C6000895CF93DF9365
:1000E000EC018881882331F021960E946600899175
:1000F0008111FBCFDF91CF910895CF93DF93CDB7DF
:10010000DEB764970FB6F894DEBF0FBECDBF0E9476
:1001100055008FEF81B980E090E08C010F5F1F4F99
:100120004AE0BE016F5F7F4F0E94A300CE0101969F
:100130000E946E0080E091E00E946E0082B1809586
:1001400082B9C801EACFBB274A3031F4992322F49F
:10015000BDE2909581959F4F0C94AF00BB27FB01AA
:100160005527AA27880F991FAA1FA41710F0A41BB0
:1001700083955051B9F7A05DAA3308F0A95DA1930A
:10018000009779F7B111B1931192CB010C94C8008B
:10019000DC01FC01672F71917723E1F7329704C0EE
:1001A0007C916D9370836291AE17BF07C8F3089579
:0401B000F894FFCFF1
:0201B4000A003F
:00000001FF
